{
    "contractName": "Revert",
    "abi": [
        {
            "constant": true,
            "inputs": [],
            "name": "owner",
            "outputs": [
                {
                    "name": "",
                    "type": "address"
                }
            ],
            "payable": false,
            "stateMutability": "view",
            "type": "function"
        },
        {
            "constant": true,
            "inputs": [],
            "name": "aNumber",
            "outputs": [
                {
                    "name": "",
                    "type": "uint256"
                }
            ],
            "payable": false,
            "stateMutability": "view",
            "type": "function"
        },
        {
            "inputs": [
                {
                    "name": "ownerAddress",
                    "type": "address"
                }
            ],
            "payable": false,
            "stateMutability": "nonpayable",
            "type": "constructor"
        },
        {
            "constant": false,
            "inputs": [
                {
                    "name": "number",
                    "type": "uint256"
                }
            ],
            "name": "set",
            "outputs": [],
            "payable": false,
            "stateMutability": "nonpayable",
            "type": "function"
        },
        {
            "constant": true,
            "inputs": [],
            "name": "isEnoughBigger",
            "outputs": [
                {
                    "name": "",
                    "type": "bool"
                }
            ],
            "payable": false,
            "stateMutability": "view",
            "type": "function"
        }
    ],
    "bytecode": "0x608060405234801561001057600080fd5b506040516020806103a58339810160405251600160a060020a03811615156100bf57604080517f08c379a000000000000000000000000000000000000000000000000000000000815260206004820152602260248201527f4f776e6572277320616464726573732073686f756c64206e6f74206265207a6560448201527f726f000000000000000000000000000000000000000000000000000000000000606482015290519081900360840190fd5b60018054600160a060020a031916600160a060020a03929092169190911790556102b7806100ee6000396000f3006080604052600436106100615763ffffffff7c010000000000000000000000000000000000000000000000000000000060003504166360fe47b181146100665780638da5cb5b14610080578063e6a899b6146100be578063f5a59015146100e5575b600080fd5b34801561007257600080fd5b5061007e60043561010e565b005b34801561008c57600080fd5b506100956101f1565b6040805173ffffffffffffffffffffffffffffffffffffffff9092168252519081900360200190f35b3480156100ca57600080fd5b506100d361020d565b60408051918252519081900360200190f35b3480156100f157600080fd5b506100fa610213565b604080519115158252519081900360200190f35b6005811161017d57604080517f08c379a000000000000000000000000000000000000000000000000000000000815260206004820152601b60248201527f4e756d626572206973206e6f7420626967676572207468616e20350000000000604482015290519081900360640190fd5b600781116101ec57604080517f08c379a000000000000000000000000000000000000000000000000000000000815260206004820152601e60248201527f4e756d6265722073686f756c6420626520626967676572207468616e20370000604482015290519081900360640190fd5b600055565b60015473ffffffffffffffffffffffffffffffffffffffff1681565b60005481565b60008054600a1061028557604080517f08c379a000000000000000000000000000000000000000000000000000000000815260206004820152601b60248201527f4e756d626572206973206e6f7420656e6f756768206269676765720000000000604482015290519081900360640190fd5b506001905600a165627a7a723058207b8beb7e04f28c677effb184124e33c9c32388290cc4dec188dd6c298a94d3000029",
    "source": "pragma solidity ^0.4.24;\n\n// Example purpose contract\ncontract Revert {\n \n    uint public aNumber;\n    address public owner;\n\n    constructor(address ownerAddress) public {\n        require(ownerAddress != address(0), \"Owner's address should not be zero\");\n\n        owner = ownerAddress;\n    }\n \n    function set(uint number) external {\n        require(number > 5, \"Number is not bigger than 5\");\n        require(number > 7, \"Number should be bigger than 7\");\n\n        aNumber = number;\n    }\n\n    function isEnoughBigger() external view returns(bool) {\n        require(aNumber > 10, \"Number is not enough bigger\");\n\n        return true;\n    }   \n}",
    "sourcePath": "/Users/lyubo/Desktop/ERC20Extended/TestRequire/revert-dev/contracts/Revert.sol",
    "compiler": {
        "name": "solc",
        "version": "0.4.24+commit.e67f0147.Emscripten.clang"
    },
    "schemaVersion": "2.0.0",
    "updatedAt": "2018-07-10T14:21:51.157Z"
}